:020000040000FA
:04000000052084282B
:040004000034003490
:02000800F428DA
:06000A0021007B3099008B
:100010001F309600220018309D0020008C018D01B9
:100020008E0122008C018D018E0123008C018D0137
:100030008E01240010308C008D00210014308C00C3
:1000400030308D002A308E0020000D132C009301DB
:10005000960199019C012000FF309B002C0091012A
:10006000940197019A019201950198019B0120004A
:10007000911001309C001C152C00931796179917AE
:100080009C172000911C422821000C118E108E110B
:100090008E122C00D0309300960099009C00210015
:1000A000013095002000003095001430980018149D
:1000B000C13099002100910192019301200091012A
:1000C0009201930127009101920193019401103054
:1000D0009500960188308B002000F201FF300C1E45
:1000E000F20087308A00E027F300F801F901FA01F5
:1000F000FB01FC01FD01A001A101A201A301A401DA
:10010000A501A601A7010800862084280800200078
:100110002008A8002108A9002208AA002308AB0093
:100120002408AC002508AD002608AE002708AF0063
:100130000330A905A935A935A90E2808B000B036A5
:100140003036A9040330A805A835A835A80E033019
:10015000AB05AB35AB35AB0E2A08B000B036303648
:10016000AB040330AA05AA35AA35AA0E0330AD05A3
:10017000AD35AD35AD0E2C08B000B0363036AD041F
:100180000330AC05AC35AC35AC0E0330AF05AF3544
:10019000AF35AF0E2E08B000B0363036AF040330A6
:1001A000AE05AE35AE35AE0E28082C00910020000D
:1001B00029082C00920020002A082C00940020001E
:1001C0002B082C00950020002C082C009700200004
:1001D0002D082C00980020002E082C009A002000EA
:1001E0002F082C009B00080020008C162300A03054
:1001F0009B0001309C001E129D179E161D161E1599
:1002000008309F0024309E0090309D0020000D1388
:100210006B21FD3C031D6829FD307B21F1307B21E2
:100220006B21F700FA3C031920297708FB3C0319DE
:100230002B297708FE3C03196429F0307B21102913
:10024000FA307B21F1307B2187308A00E0277B2147
:10025000F1307B211029FB307B21F1307B216B2198
:10026000F3002300E03091000730920015131516BB
:10027000151555309600AA30960095140000000020
:10028000000000001511E0309100073092001513B6
:1002900015129516151573089300343094009512B5
:1002A00055309600AA30960095140000000000001A
:1002B0000000151195185A2987308A00E027F300AD
:1002C0007B21F1307B211029FE307B21F1307B2115
:1002D0002700960101000130F6002000911A7829CC
:1002E000F60A031D7629F5307B21010085216E2950
:1002F00023001908080020000D1723009A009E1CF7
:100300007F29000020000D1308003E30F00020304F
:10031000F100F00B8C29F10B89298E2900000800CF
:0A0320001930F000F00B92290800DC
:020FC0000034FB
:020000040001F9
:02000E00840963
:02001000FF1DD2
:00000001FF
