:020000040000FA
:04000000042031287F
:040004000034003490
:0800080021007B3099001F303C
:100010009600220019309D0020008C018D018E0178
:1000200022008C018D018E0123008C018D018E0137
:10003000240010308C008D00210014308C003030F2
:100040008D002A308E0020000D1333202100103047
:100050008C0000308E0020008E168E150C158E142C
:06006000080030303128D9
:0A00660023000F309B009C011E12C6
:100070009D179E161D161E1508309F0064309E00A9
:10008000D0309D0020000D130800080020000D173F
:1000900023009A009E1C4A28000020000D1308002F
:1000A0003E30F0002030F100F00B5728F10B5428BF
:1000B0005928000008001930F000F00B5D280800F6
:020000040001F9
:02000E00840963
:02001000FF1DD2
:00000001FF
