:020000040000FA
:0400000004202E2882
:040004000034003490
:0800080021007B3099001F303C
:100010009600220019309D0020008C018D018E0178
:1000200022008C018D018E0123008C018D018E0137
:10003000240010308C008D00210010308C003030F6
:100040008D008E012000FF300C1A0301F4003520D2
:1000500020008E168E150C158E1408004720FF39CF
:0A006000031D2E284C204F202E28EF
:06006A0023000F309B0093
:100070009C011E129D179E161D161E1508309F000E
:1000800064309E00D0309D0020000D130800003029
:100090002000911AFF3008002300190808002000F2
:1000A0000D17000023009A009E1C54280000200019
:0600B00000000D13080022
:0A00B6003E30F0002030F100F00BA6
:1000C0006228F10B5F286428000008001930F00056
:0600D000F00B6828080097
:020000040001F9
:02000E00840963
:02001000FF1DD2
:00000001FF
